:400000000040002011000000090B0000090B000010B500F09BFDC04610B512222B4B1A60302000F0F1FE2A4A2A4B1A60B8225201294B1A60294B2A4A1A60FE221202294936
:400040000A602949196029490A60294A1A60A022D20028490A602849196088208001274908602749196027490A60274A1A6080218900264A1160264A1A6080221206254B3B
:400080001A608022D202244B1A604522234B1A60053A234B1A600132224B1A600332224B1A600232214B1A60033A214B1A60013A204B1A602049072000F0DCFD072000F0EE
:4000C000C3FD00221D4B1A6010BDC046300010400600008004010B40140301400000014045FF00800003014040FF00800403014041FF00801003014044FF00801803014038
:4001000046FF00800C03014043FF00800803014042FF008008010B4000010B404C0101401C0101401801014014010140100101400C01014008010140490F00000C020B4004
:4001400010B572B60122434B1A7000240FE042486200131959000B00411889881A5AC31858880004104300F091FC0134E4B2012CEDD939490C313948203000F06DFC384A32
:40018000384B1A60384A394B1A60EE221202384B1A609922374B1A605532374B1A6099231B04364A1360364A1360364A1360364A13600121354B1960354B196035480378B4
:4001C0003C22934314221343DBB20370324A107816230343DBB213702023304A1360D82040032F4A1060B5202E4A10602E482F4A106035202E4A106068302E4A10602E4809
:400200002E4A1060BD202E4A10602E4A13602E482E4A10602E4A13602E4B196026222E4B1A602E4A2E4B1A6002222E4B1A6003232D4A1360D82189022C4A11602C4A1360CA
:400240002C4A136024222C4B1A60FFF7E5FE00F043FC10BD1C700F40143C0000943D0000FF0F000000010240FFFF00000002024000030240000502400007024000500F4086
:4002800010500F4020500F4030500F402000104000800F4001700F4000700F400000044008000440000104408E01C0000801044018010440000204408E0D00000802044046
:4002C0001802044000030440B60D000008030440180304401804044000050440B10103000805044018050440000604400806044018060440000704400807044010B5064C25
:400300002378002B07D1054B002B02D0044800E000BF0123237010BD580100200000000038380000084B10B5002B03D00749084800E000BF07480368002B00D110BD064B51
:40034000002BFBD09847F9E7000000005C01002038380000C00000200000000010B50F2900D9D2E08900694B5B589F46002000F03DFE002000F046FE002000F04FFE002082
:4003800000F058FEC1E0002000F030FE002000F039FE002000F042FE012000F04BFEB4E0002000F023FE002000F02CFE012000F035FE002000F03EFEA7E0002000F016FEED
:4003C000002000F01FFE012000F028FE012000F031FE9AE0002000F009FE012000F012FE002000F01BFE002000F024FE8DE0002000F0FCFD012000F005FE002000F00EFEA6
:40040000012000F017FE80E0002000F0EFFD012000F0F8FD012000F001FE002000F00AFE73E0002000F0E2FD012000F0EBFD012000F0F4FD012000F0FDFD66E0012000F06D
:40044000D5FD002000F0DEFD002000F0E7FD002000F0F0FD59E0012000F0C8FD002000F0D1FD002000F0DAFD012000F0E3FD4CE0012000F0BBFD002000F0C4FD012000F032
:40048000CDFD002000F0D6FD3FE0012000F0AEFD002000F0B7FD012000F0C0FD012000F0C9FD32E0012000F0A1FD012000F0AAFD002000F0B3FD002000F0BCFD25E0012023
:4004C00000F094FD012000F09DFD002000F0A6FD012000F0AFFD18E0012000F087FD012000F090FD012000F099FD002000F0A2FD0BE0012000F07AFD012000F083FD0120BA
:4005000000F08CFD012000F095FD10BD3C38000010B500F0E7FB10BD70B50500084C01E0013CA4B200F0FAFD002801D0002CF7D100F0FCFD00F0D4FD280000F093FD70BDB5
:4005400010270000F0B557464E464546E0B40E009246984608AB30CB1F780120FFF7DCFF300000F059FE002F03D0FA208000FFF7CFFFD146002601225242D317A4185D4145
:4005800023002B4325D000F0A3FD0028F3D04645F1DA53469F1900F095FD3870042E09DD4B46581F0622124902F094FC002801D1063E13E0072E07DD09220E4948460838AA
:4005C00002F088FC002807D0013601239C46E144D1E70226764201E0012676420020FFF79BFF30001CBC90469946A246F0BDC046B8390000C039000070B592B0050004ACBE
:400600002200104B383343CB43C21B8813800026A6730D4800F000FE02960C4A002300920193282308AA21002800FFF78BFF08A800E0013003783A2BFBD1013002F0E4FB9B
:4006400012B070BD7C380000D4390000A086010070B590B00500FFF7CFFF09282AD004AC2200164B483343CB43C2198811809B789370032200211F20684402F000FC0023FF
:4006800002930F4A002300920193192309AA21002800FFF757FF002804DA012040420AE0013000E009A803783D2BF9D1013002F0ABFB00E0092010B070BDC0467C38000004
:4006C000A086010070B590B00500FFF795FF01282AD004AC2200164B5C3343CB43C2198811809B789370032200211F20684402F0C6FB002302930F4A0023009201936423DA
:4007000009AA21002800FFF71DFF002804DA012040420AE0013000E009A803783D2BF9D1013002F071FB00E0012010B070BDC0467C38000040420F0010B5A8B004000A00B6
:400740000B4905A802F0A4FB00230293094A00230092019364230FAA05A92000FFF7F2FE002801DB002001E00120404228B010BD2C3A000040420F00F0B54F4680B490B0AD
:4007800005900BAB99461B4B0B9300244B461C7106AD194B04332A00C2CBC2C2198811809B789370032200211F2302A884466344180002F064FB0294104E002700960197A3
:4007C0000A230DAA49460598FFF7BCFE0294009601970A230DAA29000598FFF7B3FE002801D0002001E00120404210B004BC9146F0BDC0462B2B2B00FC380000A0860100A1
:4008000080B50C4FBD440A000B4B0C49684602F03FFB0120FFF780FE684600F0FDFC0120FFF776FE0020FFF777FE0020FA239B009D4480BD18FCFFFFBC390000403A0000DF
:4008400070B5C0B062B602F001F9060002F050F900F028FC002000F005FC01F073FE744A8C218C2001F0E0FE00F0F6FCFA208000FFF74EFE01A8FFF77FFF1420FFF748FEE6
:4008800001A8FFF7E5FE1420FFF742FE01A8FFF719FF1420FFF73CFE664901A8FFF74CFF012500F0D3FF002805D100F0F9FC00F081FE01F009F80421002000F059FE0028B8
:4008C0000BD00021002000F053FE002807D05A4901A8FFF795FF012402E0002400E000240421002000F044FE00280CD00121002000F03EFE002806D00134012C03D14F49E2
:4009000001A8FFF77DFF0421002000F031FE00280CD00221002000F02BFE002806D00134012C03D1464901A8FFF76AFF0421002000F01EFE00280CD00321002000F018FE6E
:40094000002806D00134012C03D13E4901A8FFF757FF0521002000F00BFE00280CD00021002000F005FE002806D00134012C03D1354901A8FFF744FF0521002000F0F8FD91
:4009800000280CD00121002000F0F2FD002806D00134012C03D12D4901A8FFF731FF0521002000F0E5FD00280CD00221002000F0DFFD002806D00134012C03D1244901A824
:4009C000FFF71EFF02F042F8801B224B984207D9280000F03BFBED43EDB202F037F806000721002000F0C4FD00280BD00121002000F0BEFD002805D00134012C02D101A8EE
:400A0000FFF7BAFE0721002000F0B2FD002800D147E70221002000F0ABFD002800D140E7002C00D03DE7034901A8FFF785FE38E7CC010020E83B0000F83B0000FC3B0000D8
:400A4000003C0000043C0000083C00000C3C0000103C0000400D0300F0B50025002711E0BB00C658F3B2FF22964308E06A008A181478A419527822700135013BDBB2002BB5
:400A8000F4D10137092FEBD9F0BDC04610B50A00002102F0F4F910BD0C4B1B68002803D080221206134301E05B005B08074A1360074B1B68002803D080229204134301E067
:400AC000044A1340024A13607047C04680033A4008010B40FFFFFFFD10B50323064A1360064A1360064A13600022064B1A600120FFF7D2FF10BDC0460421024030003040AB
:400B000030003140000E3F4010B502F083F903680C2B00D1FEE7FEE710B50300094A1068C318094A9A1A802189008A4202DC054A136005E002F06EF90C2303600120404299
:400B400010BDC046C40000207802002070B50F4E0F4D13E029686B68AC68002202E001C901C30432A242FAD1E868002202E0002102C304328242FAD11035013E002EE9D1F9
:400B800002F04EF9FFF75CFEFEE7C04601000000B440000010B50E4A136801218B43136000230AE0032B03D89A000A49505800E009489900094A885001332F2BF2D9FFF7E2
:400BC000BFFA034A116801230B43136010BDC0460000104000000000090B00000000002000230AE00D4A12683F210A400C49C95C8A4201D1033303E001332D2BF2D9032304
:400C000008490868084A02400A60084A944663441B78DBB2064A13607047C0462CFF0B40DC3D000000002240FFFFFFBFCDF1FF0F28FF0B40034B18688023DB05184000D01E
:400C400001207047000022401F2318401E3B8340014A13607047C04600E100E01F2318401E3B8340014A13607047C04680E100E001BE704770B504000D001F2802D90020E8
:400C8000FFF7F6FF1034A40080239B059C4664442068256070BDC04670B504000E00032902D90020FFF7E4FF1F2C02D90020FFF7DFFF03252540ED00063501F032FFA40880
:400CC000A400074B9C46644421680323AB4099430B003100A9401943216001F026FF70BD00E400E010B5040006E0084B586801F00FFF074B9C46644480231B029C42F4D8EE
:400D0000024B9868604301F003FF10BDC80000200080FFFF70B582B000F0C0F800285DD001F0FFFE050000230AE02D4A12683F210A402C49C95C8A4201D1033303E0013329
:400D40002D2BF2D903230021274A1160274A1268D20606D1254802681F318A4313390A430260234C2168234A1140234A5A438023DB019C466244D20B013A5205520D0B00FE
:400D80001343A0225203134323601C4B1B680193302001F0CDFE1A4A13688021C9050B4313602668174B1E40002407E00120FFF799FF1034A30533430D4A1360EE2CF5D938
:400DC0000120FFF78FFFFF239B051E43084B1E60019A0A4B1A60280001F0A7FE02B070BD2CFF0B40DC3D000028FF0B4034FF0B400800224000F800C040420F0030001040A1
:400E000000002240FFFF3FC030B587B0040001F088FE0500FFF70EFF002803D0FFF7E0FE012100E00021104B1B6800930F4B1B680193033C0E4B1B5D02930E4B1B680393C9
:400E400004AA0D4B04936B4605930C4B1A600C480C4A10601B68012901D1FFF75BFF280001F063FE07B030BD08010B4000010B40DC3D000030001040B6EA00000800104083
:400E80001700008004001040034B1868C0231B02184000D00120704700010B40034B1B68002B01DA012000E0002070470000224010B501F036FE044A1368C02109020B432F
:400EC000136001F032FE10BD00010B4010B501F028FE08490A68084B1A408024E40122430A600A6813408022120213430B6001F01CFE10BD00010B40FF3FFFFF70B50500DB
:400F000001F00FFE0400FFF7BFFF002803D0FFF7DDFF012100E0002108482840084A1568084B2B40184310601368012901D1FFF7BFFF200001F0F9FD70BDC046040404008A
:400F400010020B40FBFBFBFF10B5244B1B685B0715D5234B5B685B070ED5224B596A042001401F4C62688A4362605A6A82435A629B69002B00D098470420FFF7BFFF174BF5
:400F80001B685B0518D5164B5B685B0510D5154B596A8022D2001140114842688A434260596A114A0A405A62DB69002B00D098478020C000FFF7A2FF084B1B685B030CD550
:400FC000074B5B685B0304D5064B1B6A002B00D098478020C002FFF791FF10BD10020B40DC00002074010020FFFBFFFF044A1368DBB201218B430840184310607047C04644
:401000000003044004490A68D2B210239A43000118401043086070470006044004490A68D2B202239A43400018401043086070470003044004490A68D2B220239A434001C7
:4010400018401043086070470006044004490A68D2B204239A43800018401043086070470005044004490A68D2B240239A43800118401043086070470000044010B500F0BB
:40108000B9F810BD10B500F061F810BD10B5044A1368802109060B431360FFF7EFFF10BD0000264010B5064B1B78002B04D1FFF7E9FF0122024B1A70FFF7E8FF10BDC04690
:4010C0009C010020014B18687047C04640032640024B1B681F2018407047C04608032640054B1A68802149020A431A601968034A0A401A607047C04604032640FFFFFEFF30
:40110000044B1B681F221340082BF9D0024B18607047C0460802264040022640024B1B681F2018407047C04608022640054B1A68802149020A431A601968034A0A401A6008
:401140007047C04604022640FFFFFEFF154A164B1A600023154A13601549164A1160164A16490A6007201649086016490B6006381549086015490A60154A13600421154AEA
:401180001160154A1360154A1360154A1360154A1360154A1360154A13601268144B1A807047C0460B000002000026404000264001000A00480026400700008000032640E0
:4011C000040326401003264044002640000226400402264050002640880E2640C80E2640480F2640080F2640C80F2640880F26409E01002005490B68F0229343603A1343D1
:401200000B60034B1A88034B1A607047000502409E010020880F264070B50500002402E0FFF76EFF0134285D0028F9D170BDC04610B5084B1B78002B06D100F063F900F076
:40124000AFF90122034B1A7000F04CF800F078FC10BDC046A001002070B5FFF7E9FF051E02D100F0CFFB0500002D02D100F02CFB0500002D02D00BE0013C00E0074C00F081
:40128000E5FA002801D0002CF6D1002C00D1102500F018FA00F05AFA280070BD404B4C0070B50E4E0025002413E0630904339B000B4A9B581F222240D340DB0707D53000D8
:4012C00000F04CF805003100200000F0EFF820360134002CE9D0280070BDC046143E0000CC01002070B5002309E014491A1D92008818002444600120404250500133002B22
:40130000F3D00F4C012315E06668A27E0B4B5B1900211976042A0BD16368FB32DA749A741A752069002803D0F179228B01F0A7FD20342B005D1E002BE6D170BDCC010020FB
:40134000143E000030B50B884A889C1A0025CD800079844200DDCC8030BDC046F0B583B0070084684568837E01930026002300930BE0019A2100280000F0FEF900902100FE
:401380002800FFF7DFFF0A3401363B8B9E42F0D3009803B0F0BDC046F0B55F4656464D464446F0B485B08C460B008F6849681D69FF2303939A460023994600240293019189
:4013C00042E00123A3401E00064005D101994A8893468A795A4403E001994A888979521AF9888A4201D3002200E01A00B24207D029788B46012149428846C34459462970B3
:40140000B24202D02E78002E09D198431043002A03D1019AD2792A7001E001222A7003420FD06346DB7E9C4204D201239846C144039406E001229046029A42440292E31AE4
:401440009A460A370135013463461B8B9C42B8D3029B984601994B46012B02D86B461B7B00E0FE238B744346012B04D853466A461371137900E0FE23CB744346012B0CD179
:401480004B46012B09D16346DB7E52465A431300039A944663440B7501E0FF230B7505B03CBC90469946A246AB46F0BD70B504008A7E134B1B181D7E042A04D12800FFF7C4
:4014C0006BFF050002E00020FFF7D2FB0C4B1B191D7663091F2214401E3AA240002D07D104339B000649CB1859689143596006E004339B000249CB1859680A435A6070BD2D
:40150000CC01002070B5164D8C220021280001F0B6FC144B2B80144BAB8003228B23EA54893B2B77114C28001E3021002831133201F09CFC2200083401230CE0A168238B51
:4015400004E013784B7201320A310300581E002BF7D120342B005D1E002BEFD170BDC046CC01002048A5FFFF701700000C3E000000280CD14301084AD3181B8C8B4208D9C9
:40158000064B1818037E01208840184002E0002000E000207047C0460C3E0000CC0100200023024AD380024A13607047CC010020AC01002070B5002500263D4B1B68032B57
:4015C00006D101F0AEFA01223A4BDA8001F0ADFA384BDC88E4B2062C23D8A300364AD3589F460122324B1A6001261AE00022304B1A60012615E0FFF72FFE00222C4B1A6060
:40160000012501260DE00222294B1A60012608E00022274B1A60012603E00322244B1A600026002E0FD001F07CFA224BDB88DBB29C4205D11F4AD188204B0B439BB2D38063
:4016400001F073FA00261A4B1B68012BB5D0022B2BD1184A8233D35CDBB28521525CD2B2002B22D1590116484118098B8A421CD21049088980B28624095B89B2884214D0E9
:401680005B010F49CB189C6893009A185300E41801F047FA074B1A8992B286215A52228892B202315A5201F040FA280070BDC046AC010020CC0100202C3F00000080FFFF47
:4016C000143E00007047C046FF231940062902D08318002119715300195AC31859808218002313727047C04670B506000D00012305E0220029003000FFF7E6FF23005C1E6C
:40170000002BF6D170BDC04610B54001054B1B188A00511848009A6894466044997EFFF7E3FF10BD143E000070B505004301064AD3181B8B04E021002800FFF7E5FF2300B9
:401740005C1E002BF7D170BD143E000010B5012303E02000FFF7E8FF23005C1E002BF8D110BDC0469840504380235B009A1A51434018000A7047C046F0B5474680B482B0E8
:4017800007000E00019201233EE06300985BF3185988884205D3431A321900251572012201E00B1A0022002A11D17D79AB420ED933191B7A3A7A934205D3220001993000B8
:4017C000FFF782FF1FE03219013313721BE03D79AB4204D97D79AB4215D8002A13D1FF23019A1340062B0ED00902331998461B79194308230122FFF7B5FF020A6300F31860
:401800005A804346187123005C1E002BBDD1002002B004BC9046F0BD30B5084803680F24A3431900064D2B780F2213400B43E13293432A78A2431343036030BD00FF28403A
:4018400062F1FF0F10B5FFF7E7FF10BD024BDB68802018407047C046CC01002010B50E4BDB68DB030DD400280DD1430904339B00094A9B581F220240D340DB0705D4012467
:4018800004E0112402E0012400E00024002C01D100F0BCFC200010BDCC01002010B5084BDB68DB0307D4074B1B78012B05D100F00DFC002003E0112001E00120404210BD0B
:4018C000CC010020B001002010B50C4BDB681B0612D40024012040420BE02000FFF7BEFF002805D10022064B5A70FFF7D7FF04E00134002CF1D000E0112010BDCC01002067
:40190000B0010020F8B54F464646C0B401280BD0022804D0002399460633984607E0052399460023984602E0002399469846144C00251FE001F0F5F82268136821698B4309
:40194000136066683268A77E0721B9408A434146B9400A433260227E494691400B4322681360A268136861698B43136001F0DDF81C340135072DDDD90CBC90469946F8BDD7
:401980004C3E00007047C046074A084B1A6001380002074B1860054B1B68002BFBDB054A024B1A607047C04640000040000001400003014040FF0080074A084B1A600138FB
:4019C0000002074B1860054B1B68002BFBDB054A024B1A607047C04641000040000001400403014041FF008010B5031E01D1002000E00120002803D15521180000F052FD08
:401A000010BDC04670B50024002504E02000FFF7EBFF05430134002CF8D0280070BDC0464001024B1818436898897047143E00004001024B18184368D8897047143E00004F
:401A400010B50B4B1C7F42004003801A01238B40013B6343984205D911028A1A934203D3402002E0C02000E00020C0B210BDC046CC01002070B504000E00FFF7D1FF400015
:401A800035882900FFF7DCFF30746301074AD3189B7E043BDBB2012B07D82000FFF7C8FF40002900FFF7CCFF707470BD143E000010B5002407E06301044AD3185968200083
:401AC000FFF7D8FF0134002CF5D010BD143E000070B505000E00140001F023F82B685C4034405C402C6001F020F870BD10B500220F210348FFF7ECFF00F076FB10BDC04604
:401B00000004024010B504000C4B1B78834214D0012B01D1FFF7EAFF012C05D100F0ACF90122064B1A7008E0022C06D0042C04D0032C02D00022014B1A7010BDB001002009
:401B400010B5FFF77FFEFFF7B3FF0020FFF7DAFE00218B23044AD1540020FFF7D3FF0120FFF7D0FF002010BDCC010020014A024B1A6070470002000108002840F0B547463F
:401B800080B482B005004301214AD3185A689C68138801279F40013F0A2902D908000A3800E000200A23984688444346642B01D9642398467843642101F09AF806004046A3
:401BC0007843642101F094F8020000270023019313E04B00185B864208D80B00824201D207E00123591E002BF3D104E00623019301E0062301930A3401376B010449CB188B
:401C00001B8B9F42EDD3019802B004BC9046F0BD143E0000F8B54F464646C0B4060045688468EB7A9946984601237F20002716E06B185A7A974200D21700904200D80200D5
:401C4000B37E043BDBB2012B07D86B189B7A9F4200D21F009A4200D91A000B001000591E002BE5D100210CE0A3185B7A984200D91800130000E001235A1E002BF4D10A348B
:401C80000131338B9942F6D34346002B14D0132814D80E494B46DA008A185068013BDB00CB18596801F024F847437E2F08D84E46013EEE72012004E0002002E0002000E09C
:401CC00000200CBC90469946F8BDC046483F0000F0B55F4656464D464446F0B483B00600894643689B461B8801229A401300013B01930123A6E05B461B195B7A9A46B368F8
:401D00006200D05A5546002208E01919497A8D4202D96000C05A0D000A330132F17E8A42F3D364235843019900F0E2FF64306843494600F0DDFF824500D382465B461B197D
:401D400052465A72B56800271CE06300585B64235843019900F0CCFF64302B195B7A58434B4652465343984203D22B1900225A7206E0C01A3230642100F0BAFF2B195872EC
:401D80000A350137F37E9F42DFD3B27E043AD2B2012A56D85A461219927A90469900C9184A00B1688C4662446100885A454608E01119497A8D4202D96000805A0D000A328B
:401DC0000133318B8B42F3D364235843019900F08FFF64306843494600F08AFF804500D380465B461B1942469A72F37E9A00D3185D00B3689C46654400239A461EE06300BB
:401E0000585B64235843019900F072FF64302B195B7A58434B4642465343984203D22B1900225A7206E0C01A3230642100F060FF2B1958720A3501239C46E244337F9A45FA
:401E4000DDD323005C1E002B00D054E703B03CBC90469946A246AB46F0BDC04610B5054AC02314689C43204310600800FFF7A4FD10BDC046E400002010B50E4B8B229A5C97
:401E80008A21585C824206D0FFF73CFD094B8A22995C01329954FFF769FE06220F210648FFF716FE054B1B68054A1343054A136010BDC046CC01002000040240E400002094
:401EC0002008E8810400284070B5C37ADB00144A9C5806000936134B1B785B01124AD318DA7E124B1B78DBB29A4201D80A30060000F017FE0E4D2A680E4B13400E4A117834
:401F0000765C0E4A126851184A7A1204324313432343240423432B6000F007FE70BDC046483F0000B3010020143E0000B20100200800284000FB80FB583F000058020020D1
:401F400010B5114B1A78114952018A1852681B785B01CB18D97E0E4B1B78DBB2994201D8D18900E09189084B1B785B010748C318D87E074B1B78DBB2984201D8507C00E068
:401F8000107CFFF76BFF10BDB3010020143E0000B2010020028801239340013B1B04014A53607047E400002070B500F0BAFD04001E4B1B681E4A13431E4A13601E4B187F85
:401FC000FFF7E2FC1D4A1E4B1A601D4B1B68002BFBDB1C4A1A4B1A601B4E3568572000F097FD1A4B2B401A4A13433360F0235B0000E0013B174A1268120701D4002BF8D12D
:40200000114B1D60094D144B2A681343094A13601120FEF719FEE72000F07AFD6A680F4B1A60200000F081FD70BDC046E40000202008E88104002840CC01002041000040E3
:402040000000014041FF00800800284000E8FFBFF0060040100028402018E8810C00284010B5094B1B785B01084AD3185868FFF791FFFFF765FF064AD36806490B43D36046
:40208000FFF792FF10BDC046B3010020143E0000CC0100208000010070B50400857E067E00F03FFD23681B680F22B24093431A000423B3401343666832680721A9408A437F
:4020C00032602268136000F030FD70BDF8B51D4B1B785B011C4AD3185F681C4B8B229A5C8A21585C824206D0FFF70CFC174B8A22995C01329954164C00232370114E3378A5
:40210000114D5B01EB1899682378DBB29A00D3185A008A180F4B1A603800FFF7D5FE33785B0158592278D2B2D3009A1A9300C018094B1860FFF7B0FF084800F05DFCFFF79B
:402140008FFFF8BDB3010020143E0000CC010020B2010020580200205C020020992C000010B54001054BC058CB00591A8B00C018034B1860FFF790FF10BDC046143E0000FA
:402180005C020020F8B50400067E857E00F0C9FC636819680723AB40994327683B680F22B24093433B608B220E4FBA5C002A05D10623AB4019436368196008E0022A06D1F2
:4021C0000332B24013436268116022681360A1680B68647E0122A24093430B6000F0A5FCF8BDC046CC01002010B5064B1B78012B06D1054B1868FFF7C5FF0022014B1A701F
:4022000010BDC046B40100205C02002070B50F4E4301F3185D68C0B20D4C20700120FFF771FCFFF7E1FF23785B019A59094B1A60094BDA687F218A43DA602178DA680A4310
:40224000DA602800FFF7A6FE70BDC046143E0000B30100205C020020CC01002070B54301134AD3185D68C9B2124C217099682378DBB29A00D3185A008A180F4B1A60FFF74A
:40228000C5FF2800FFF720FE2378DBB20B49DA00D31A98000B689C4660440860FFF7FCFE0122074B1A70074800F0A6FB70BDC046143E0000B2010020580200205C020020C3
:4022C000B4010020552C0000F0B55F4656464D464446F0B485B0019043016F4AD3185B689A461F000937012305E0002303A8835402A8835413005A1E002BF6D153461A884A
:4023000001239340013B59430800642100F0F0FC8146019B5B01604AD3189B7E043BDBB2012B02D90023984601E00123984603AB9B46002675E0019B5B01574AD318DB7E5A
:402340009E4206D14346002B03D057460A3702AB9B46019B5B01504AD3189D68B3009B195A00AD18012304E04023BB54A9184B7213005A1E002BF7D1402431000198FFF711
:402380006DFFFFF76DFE454B00E0013B444AD26812060DD5002BF8D101330AE053005B5B994503D9B9180B78A3430B70130000E001235A1E002BF1D1640801330FE0B9187C
:4023C0000B782343DBB20B70A8184372002C05D10B78002B02D101330B70437213005A1E002BECD1002CC8D1013307E05B469B181878B95C884200D2197013005A1E002B69
:40240000F4D131000198FFF729FFFFF729FE234B00E0013B224AD268120601D5002BF8D10136019B5B011C4AD3181B8B9E4282D3012327E003AB1B5D524612195372424604
:40244000002A1ED002AA105D524612199072524691894B43D2895043834208D200F048FC7F2800D97F2053461B19587209E01100180000F03DFC7F2800D97F2053461B1988
:40248000987223005C1E002BD4D105B03CBC90469946A246AB46F0BD143E0000004C1D00CC01002070B504000D004601174BF618174BDB68DB0324D473680022DA7229003B
:4024C0002000FFF701FF3000FFF7A4FB0028F6D129003000FFF7FCFB2000FFF797FEFFF7F5FD0C4B00E0013B094AD268120601D5002BF8D1002B06D029002000FFF73EFBDE
:4025000002E0112000E0102070BDC046143E0000CC010020006CDC0210B50B20FEF794FB10BDC04610B500F01DF810BD10B5044A1368802109060B431360FFF7EDFF10BD30
:402540000000274010B5064B1B78002B04D1FFF7E9FF0122024B1A70FFF7E8FF10BDC046B801002010B500241A4B1C601A4A1B4B1A601B4B1B4A13601B4A14601B491C4AFB
:4025800011601C4A13601C4B1C600B20FEF766FB03210B20FEF780FB18490B20FEF76AFB174B1C60174B1C605222FF32164B1A60164B1C60164B1C60164B1C60503AFF3A32
:4025C000154B1A70154B1C70154B1C80154B1C8010BDC0460000274000080040600027400701008000032740040327401000FE001003274000022740040227405926000087
:40260000C80E2740880E2740480F2740080F2740C80F2740880F27406402002068020020620200206002002070B506000D00141E0BD00B20FEF712FB044B1C60044B1E80A8
:40264000044B1D800B20FEF7FFFA70BD6C020020700200206602002070B5B44B1B68002B00D09847B24B1C88B24B1D68B24B1E680223FF331D4239D0B04A13685B005B0867
:402680001360AF4A137820218B431370117810230B43DBB21370AB4B1B68DB060CD4A44B1A88A94B1B889A420CD0A54A117808230B43DBB2137005E0A14A117802230B4390
:4026C000DBB21370A14A1168A14B0B4013600023A04A13609B4A136002229F4B1A70974A1368802109060B4313601BE1F30602D500229A4B1A600A23334200D1A3E0984B59
:402700001B685B0769D5974B1A68934B1B78012B04D0002B22D0022B16D057E0924B1B88002B0DD00121914B1960914B1B681B19D2B21A7001348C4A1388013B138048E0FD
:4027400002228A4B1A6044E00121884B1960D2B2854B1A800022804B1A703AE0824B1B881B021A43834B1B889A422BD201217F4B1960814B1B889A4202D29B1A9BB200E03B
:40278000002379490B80072B03D80121724B197014E0082B09D16D490B68A020000203430B6000216B4B196008E068490B688020800103430B600821664B1960624B1A80CF
:4027C000140006E00222694B1A6002E00020FEF74FFA0422694B1A6035E05C4B1B689B0431D5B3070DD5664B1B681F211940574A1068574B03401360012014E008210120DC
:4028000011E0594B1988083989B219800829F5D8002008E0564B1B681B19524A1268D2B21A70013401390029F4D1002808D1474A1368802109020B4313600022454B1A60C8
:402840000C224E4B1A60B3074BD5EB0615D50023404A13603B4A13603B4B1B889C4201D1022300E00A232B40354A11780B4320218B4313700222384B1A706B062FD5304ACC
:40288000117820230B43DBB213702F4B1B881C003C4A1268D20612D5364A1288D31A324A1380394B1A68802149020A431A601968364A0A401A601022224B1A6002E0042241
:4028C000244B1A600122324B1A603249194B196031490868102303430B60244B1A60154B1D60154B1B685B071CD51F4B1B88002B0CD01F4B1B681B191B78DBB2274A13607A
:402900000134194A1388013B138002E0FF22234B1A60234B1B681F221340082BE5D10F3A204B1A60024B1C8070BDC046BC01002062020020400F2740000E274000002740FF
:4029400068020020880F27406002002060002740FF5FFFFFC80F274064020020880E2740CC0F274040032740C00100206C0027406C0200207002002066020020C00F2740EB
:40298000080327406400274004022740FFFFFEFF800E2740FF0F0000480F27404002274008022740800F27408423014AD05070470000002010B5040000F0B3F8044A11688D
:4029C000044B0B40A4031C43146000F0AEF810BD10E400E0FF3FFFFF80229202014B1A607047C04600E100E080229202014B1A607047C04680E100E010B50400FFF7F4FF2A
:402A00002000FFF7D1FF0320FFF7D4FFFFF7E4FF10BDC046034A117880235B420B43DBB21370704770000F40014B18707047C04683000F40014B1878C0B2704763000F4014
:402A4000014B18607047C04600200F40024B1B78024B18687047C04600000F4000210F40014B18687047C04600210F40014B18607047C04680200F40014B18607047C04653
:402A8000C0200F4010B501E0FFF7EAFFFFF7D2FF4306F9D410BDC04610B5134B1A7807218A431A701A7804398A431A70FFF7EAFF02204042FFF7DAFF0020FFF7C1FF01200F
:402AC000FFF7B2FFFFF7B6FFFA208000FFF7D4FF00F027F8054A117810230B43DBB2137000F023F810BDC04670000F4093000F4010B5064B1B78002B04D1FFF7CDFF01229C
:402B0000024B1A70FFF786FF10BDC046C20100200230800803D00138FDD1C046C046C0467047EFF3108072B6704780F31088704770B50400FFF7F5FF0500102C05D8104A92
:402B4000136803218B43136016E0202C07D80C490B6803229343023A13430B600CE0302C07D807490B6803229343013A13430B6002E00020FEF77CF82800FFF7D6FF70BD28
:402B800030001040044B1A68044B1B78044909685B00D1527047C04658020020583F00000C00284070B5244B1A78244952018A1854681B785B01CB181A7E013A204B1B787D
:402BC000DBB29A421FD91E4D2B780133DBB22B70194E33785B01CB1899682B78DBB29A00D3185A008A18174B1A60FFF7A9F92000FFF76AF93078C0B22978C9B2FFF7B0FA44
:402C0000FFF7D2F916E000220D4B1A700E4AD1680E4B0B40D3600E4B1B78012B02D1FEF7B1FE07E0084BDA6880218A43DA601A8901321A8170BDC046B3010020143E0000F4
:402C4000B201002058020020CC010020FFFFFEFFB101002010B50122094B1A60FFF792FF084B1B68084A1343084A1360084B1A8901321A81D968074A0A40DA6010BDC04620
:402C800014002840E40000202008E88104002840CC0100207FFFFEFF10B50E4B1B785B010D4A9C580D4B1A78D2B2D1008A1A9300E41801220A4B1A60FFF764FF094B1B6843
:402CC000094A1343094A13602000FFF75BFAFFF769FF10BDB3010020143E0000B201002014002840E40000202008E88104002840002243088B4274D303098B425FD3030AC0
:402D00008B4244D3030B8B4228D3030C8B420DD3FF22090212BA030C8B4202D31212090265D0030B8B4219D300E0090AC30B8B4201D3CB03C01A5241830B8B4201D38B03EF
:402D4000C01A5241430B8B4201D34B03C01A5241030B8B4201D30B03C01A5241C30A8B4201D3CB02C01A5241830A8B4201D38B02C01A5241430A8B4201D34B02C01A52419A
:402D8000030A8B4201D30B02C01A5241CDD2C3098B4201D3CB01C01A524183098B4201D38B01C01A524143098B4201D34B01C01A524103098B4201D30B01C01A5241C308E9
:402DC0008B4201D3CB00C01A524183088B4201D38B00C01A524143088B4201D34B00C01A5241411A00D20146524110467047FFE701B5002000F006F802BDC0460029F7D0BF
:402E000076E770477047C04610B50A22002100F005F910BD014B18687047C0464C0100200E4B70B500251E000D4CE41AA410A54204D0AB00F35898470135F8E701F028F97B
:402E4000084B00251E00084CE41AA410A54204D0AB00F35898470135F8E770BD9C4000009C4000009C400000A4400000002310B59A4203D0CC5CC4540133F9E710BD0300B1
:402E80008218934202D019700133FAE7704700000EB410B59DB002A9029008610B48822488604861012040421FABC881084804CBA400006801938C8100F07EF90023029AD0
:402EC00013701DB010BC08BC03B01847FFFFFF7F4C010020002330B59A420BD0013AC45CCD5CAC4205D19A4202D00133002CF6D12500631B180030BDF0B51E00454B87B0E9
:402F00001B680192029308220B00059003911C7802995D1C09194878104001D02B00F6E72D2C04D19D1C5C780123009304E000902B2C01D15C789D1C002E02D0102E0AD120
:402F400062E0302C5ED120222B789343582B54D110266C780235009F31007B1E9F412E4BFF183800FFF74AFF380004913100FFF7BFFE00230322070094461800029A1219C7
:402F800051780422114201D0303C07E06246114017D03722012900D02032A41AA64210DD5A1C0BD0B84207D802D1049B9C4203DC70430123201801E001235B422C780135AF
:402FC000DCE75A1C0BD10098059A431E9841124BC01822231360019B002B0AD117E0009A002A00D04042019A002A10D0039A002B00D06A1E019B1A6009E03024002EAAD1EE
:403000000826A8E70A26A6E7302C9CD0A3E707B0F0BDC04650010020FFFFFF7F10B513000A00010002480068FFF766FF10BDC0464C010020032370B5CD1C9D4308350600E6
:403040000C2D01D20C2501E0002D01DBA94202D90C23336048E0300000F06EFB234B1C681A002100002913D00B685B1B0DD40B2B02D90B60CC181EE08C4202D163681360B0
:403080001AE04B6863600C0016E00C004968E9E7174C2368002B03D1300000F01BFB20602900300000F016FB431C18D00323C41C9C43A0420DD12560300000F03EFB20002A
:4030C00007220B30231D9043C31A0ED05A42E2500BE0211A300000F0FDFA431CEBD10C233000336000F029FB002070BDC8010020C4010020F0B58E6885B007000C000392DF
:4031000001939E4243D890238A89DB001A423ED003250969236801985B1A029363695D43EB0F5D19029B6D1001331B18AB4200D91D00530510D529003800FFF77BFF061EBB
:4031400014D0029A2169FFF791FEA289194B134080221343A38112E02A00380000F03AFB061E0CD12169380000F0E8FA0C23402201203B60A38940421343A38117E0029BAB
:403180002661F61826606561019EED1AA560019BB34200D21E0032000399206800F0B7FA0020A3689B1BA36023689E19266005B0F0BDC0467FFBFFFFF0B59FB00290059361
:4031C0008B890F0016001B0610D50B69002B0DD14021FFF72FFF38603861002804D10C23029A01381360D8E040237B61002306AD6B6120336B761033AB7634002378002BBE
:4032000003D1A31B049312D003E0252BF9D00134F4E7A31B320039000298FFF76BFF431C00D1B4E06A69049B944663446B612378002B00D1ABE00122002352426A6002A960
:403240005432521801342B60EB60AB601370AB65534E21780522300000F04EFA002807D00123801B83402A68013413432B60EFE72B68DA0604D55322202102A81218117096
:403280001A0704D553222B2102A81218117022782A2A03D0099B00200A210EE0059A111D12680591002A01DB099204E05242EA60022213432B6001340BE02278303A092AC4
:4032C00004D84B4301349B180120F6E7002800D0099323782E2B1ED163782A2B0AD1059B02341A1D1B680592002B01DA01235B42079310E000230A201A0001346B60217884
:403300003039092904D84243013452180123F6E7002B00D00792234E21780322300000F0EBF9002806D04023801B83402A68013413432B60217806221B48661C297600F08E
:40334000DBF9002812D0194B002B06D10722059B073393430833059314E005AB00933A00134B2900029800E000BF07E005AB00933A000F4B2900029800F08AF80390039B08
:40338000013304D06B69039A9B186B6135E7BB890B985B0601D5012040421FB0F0BDC0465C400000624000006640000000000000F5300000F7B5170001938A680B69009060
:4033C0000C00934200DA130022003B6043321278002A01D001333B6023689B0602D53B6802333B60062523681D401ED0230043331B785A1E9341226892061CD53020E1182E
:403400004331087021005A1C45310978A2184332023311700FE022000123193201990098089EB047431C0ED00135E3683A689B1A9D42F0DBDAE72200019943320098089DF0
:40344000A847431C02D10120404220E006232068E1683A6803400025042B03D18D1AEB43DB171D40A3682269934201DD9B1AED180027BD420AD0220001231A320199009896
:40348000089EB047431CDED00137F2E70020FEBDF0B58BB006920A0043320793059004920A7E0C00109B6E2A00D1ABE011D8632A22D009D8002A00D1B5E0582A00D0C5E0B7
:4034C00045310A70814A4FE0642A1DD0692A1BD0BCE0732A00D1AAE009D86F2A29D0702A00D0B3E0202209680A43226037E0752A1FD0782A33D0A9E00E001A684236111D5A
:40350000196013683370A4E021681A68080606D4490604D5111D19600023D55E02E0111D19601568002D3BDA2D23049A6D42137036E021681A68080606D4490604D5156842
:40354000111D1960ADB202E0111D196015685F4B227E039308276F2A1DD00A271BE022007821453211705A4A19680392081D226818600D68100602D4500600D5ADB2D30725
:4035800002D520231A4322601027002D03D1202322689A4322602300002243331A7002E00A274A4B03936368A360002B09DB0422216891432160002D05D1049E002B11D099
:4035C0007BE0002D79D0049E28003900FFF716FC039B013E5B5C280033703900FFF788FB051EF1D1082F09D12368DB0706D563682269934202DC3023013E3370049B9B1B0D
:4036000023612BE009681A68080607D4490605D5111D19601368A28A1A8004E0111D1960136862691A600023049E236116E01A68111D1960166800216268300000F05CF87E
:40364000002801D0801B6060636803E0260042363270012323610023049A1370079B09AA00932100069B0598FFF7A4FE431C02D10120404227E02369320006990598079DC3
:40368000A847431CF4D0236800259B070FD4099BE068984217DA180015E022000123193206990598079EB047431CE1D00135E368099A9B1A9D42F0DBE9E72600039B4236F7
:4036C0001B7833708EE70BB0F0BDC0466D4000007E400000002370B5064C050008002360FDF71AFA431C03D12368002B00D02B6070BDC04674020020C9B28218904204D04C
:4037000003788B4202D00130F8E70020704710B5884202D98B18984201D3002305E09B1A013A08D3995C8154FAE7934203D0CC5CC4540133F9E710BD7047704770B50500EE
:40374000002944D00C1F2368002B00DAE4182800FFF7F2FF1E4A13681100002B02D16360146031E0A3420DD92268A018834203D118685B688218226063600C6024E0A242F0
:4037800003D813005A68002AF9D11E689819A0420BD12168711858181960824214D110685268411819605A600EE0A04202D90C232B6009E021686018824203D110685268F5
:4037C0004118216062605C602800FFF7B6FF70BDC8010020F8B506000C001500002904D11100FFF727FC040018E0002A03D1FFF7A5FF2C0012E000F013F885420ED9290008
:403800003000FFF717FC071E07D021002A00FFF72DFB21003000FFF791FF3C002000F8BD0B1F1A68101F002A04DA891804390B68D018043870470000000000006C03000084
:4038400086030000A0030000BA030000D4030000EE03000008040000220400003C04000056040000700400008A040000A4040000BE040000D8040000F204000041542B428B
:403880004C454D41433F0D0A000000000000000041542B424C4552465057523F0D0A00000000000041542B424C4552465057523D0000000041542B424C454D4F44453F0D71
:4038C0000A00000041542B424C454D4F44453D390D0A00000000000041542B424C454D4F44453D310D0A00000000000041542B424C454D4F44453D300D0A00000000000000
:4039000041542B424C45444953434F4E0D0A00000000000041542B4349505354414D41435F4445463F0D0A00000000000000000041542B574D4F44453F0D0A0000000000B2
:4039400041542B5253540D0A0000000041542B574D4F44453D302C300D0A00000000000041542B574D4F44453D312C300D0A00000000000041542B574D4F44453D322C3037
:403980000D0A00000000000041542B574D4F44453D332C300D0A00000000000041542B575343414E0D0A000041542B574A41503F0D0A0000000000000D0A4F4B0D0A00006E
:4039C0000D0A4552524F520D0A000000257325640D0A0000393A20424C45206973204F46462E0A303A20424C4520697320636F6E6669677572656420696E20536C61766591
:403A0000204D6F64652E0A313A20424C4520697320636F6E6669677572656420696E20486F7374204D6F64652E0A0A0041542B424C45434F4E4E4543543D25730D0A0000E4
:403A40002573257300000000303A2057694669206973204F46462E0A313A205769466920697320636F6E66696775726564206173205354412E0A323A205769466920697387
:403A800020636F6E666967757265642041502E0A333A205769466920697320636F6E666967757265642041502B5354412E0A0A005363616E6E696E672E2E2E005363616E53
:403AC0006E696E6720436F6D706C6574652E0000547279696E6720746F20636F6E6E656374207769746820002E2E2E0A0000000041542B574A41503D25732C25730D0A00D7
:403B0000436F6E6E65637465640A0000436F6E6E656374696F6E206661696C65640A000048545450530000006874747073000000504F535400000000706F73740000000077
:403B400041542B4854545450434C49454E544C494E453D25642C25642C6170706C69636174696F6E2F6A736F6E2C25732C25642C25732C25640D0A0041542B485454545089
:403B8000434C49454E544C494E453D25642C25642C6170706C69636174696F6E2F6A736F6E2C25732C25642C25730D0A0000000047657474696E6720646174612E20506C10
:403BC0006561736520776169742E2E2E000000004A757374206120626974206C6F6E6765722E2E2E0A00000037636239346333383736623800000000520D0A00470D0A0002
:403C0000420D0A00570D0A00430D0A004D0D0A00590D0A0000300F40000400400F400004836703030E03110214041A0C1C012E01300431013208330234013602380239A086
:403C40003A083E103F444024410549FF4AFF4BFF4DA04F0150185280580459045A045B045F016040628064406540668068406A506BA86C406D206E506FA8C065C104C9FF79
:403C8000CAFFCBFFCDAFCE07CF01D018DA04DF01E040E280E440E540E680E840EA50EBA8EC40ED20EE50EFA8004009200A11100218441A111B10200221222204230331024A
:403CC000390240044101470248014E024F207002C001C207C401CC01CE01D085D2384065410449FF4AFF4BFF4DAF4E074F0150185A045F0160406280644065406680684011
:403D00006A506BA86C406D206E506FA88C02A603B001B602BE40C024C105C504C6C2C70EC83DC9FFCAFFCBFFCDAFCE07CF01D018D407D604D804DA04DB04DF01E040E28021
:403D4000E440E540E680E840EA50EBA8EC40ED20EE50EFA8004010201840194040044101470248214E024F205149521259405A1861086210638083408D408E109004920856
:403D800095029B02A001A310A602AB01C001C404D085D238D60ED807E8016B10DA4083109F10E22072107420DC03A820AA1001011001000001000F4043300F401B310F4083
:403DC0003B320F4023330F4002400F4003410F4003420F4002430F4002600F40030405060708090A0B0C0E0F101112131415161718191B1C1D1E1F20212223252627282956
:403E00002A2B2E2F303132333435000020202020202020204C3E0000EA0100200002002000000000A40100200128000008000404040000000C00640028280A031E202000BD
:403E4000080008000000FFFF00000000000202400802044000020440040204400000F0002000000014050F0000060240080604400006044004060440F000000002000000B6
:403E8000040103000001024008010440000104400401044000000F001000000010040C0000020240080204400002044004020440000000F0800000001C071500000302408E
:403EC0000803044000030440040304400000F0002000000014050F00000102400801044000010440040104400000F0002000000014050F000006024008060440000604406F
:403F0000040604400F00000001000000000000000002024008020440000204400402044000000F001000000010040C0022160000E2150000EC150000F6150000061600006B
:403F4000101600001A16000000000000804F120000040000009F24000043000020202020202020202028282828282020202020202020202020202020202020208810101020
:403F800010101010101010101010101004040404040404040404101010101010104141414141410101010101010101010101010101010101010101101010101010424242E9
:403FC0004242420202020202020202020202020202020202020202101010102000000000000000000000000000000000000000000000000000000000000000000000000073
:404000000000000000000000000000000000000000000000000000000000000000000000000000000000000000000000000000000000000000000000000000000000000080
:4040400000000000000000000000000000000000000000000000000000000000232D302B2000686C4C0065666745464700303132333435363738394142434445460030314E
:4040800032333435363738396162636465660000F8B5C046F8BC08BC9E46704725030000950B0000F8B5C046F8BC08BC9E467047FD020000C8400000C0000020980000002C
:4040C00020010000000000000000000078020020010000000000C05D80BB000030000000006CDC02F0000000040404000008C0010000FF0F0000000000000000000000005F
:404100000000000000000000000000000000000000000000593F000000000000000000000000000000000000000000000000000000000000000000000000000000000000E7
:404140000000000000000000000000000000000000000000EC0000205B3F000000000000000000000000000000000000000000000000000000000000000000000000000099
:4041800000000000000000000000000000000000000000000000000000000000000000000000000000000000000000000000000000000000000000000000000000000000FF
:4041C00000000000000000000000000000000000000000000000000000000000000000000000000000000000000000000000000000000000000000000000000000000000BF
:40420000000000000000000000000000000000000000000000000000000000000000000000000000000000000000000000000000000000000000000000000000000000007E
:40424000000000000000000000000000000000000000000000000000000000000000000000000000000000000000000000000000000000000000000000000000000000003E
:020000040001F9
:0200000490303A
:020000007CE49E
:0200000490402A
:4000000000000000000000000000000000000000000000000000000000000000000000000000000000000000000000000000000000000000000000000000000000000000C0
:400040000000000000000000000000000000000000000000000000000000000000000000000000000000000000000000000000000000000000000000000000000000000080
:0200000490501A
:0C000000000211E611A1000111FA8E852A
:0200000490600A
:0100000001FE
:00000001FF